:03000000020BBB35
:0C0BBB00787FE4F6D8FD75812B020C0257
:020800008F0B5C
:10080200E4F50CE50B7002FF22AF05AE04120E7D7B
:100812001209828F0CE50C640460030208B1120E07
:100822003B1209828F0CE50CB403037F0022741C77
:10083200250BF8E6F50D750E40750F40751040AEAC
:1008420029AF2A7C037DE8120CFB741C2FF8E6F515
:1008520011AE29AF2A7C037DE8120CFB7E007F6477
:10086200CFCDCFCECCCE120CFB741C2FF8E6F512F6
:10087200AE29AF2A7C007D64120CFB7E007F0ACF7A
:10088200CDCFCECCCE120CFB741C2FF8E6F513AEF6
:1008920029AF2A7C007D0A120CFB741C2DF8E6F5A8
:1008A200147B007A00790D7D01120B29020823D3F3
:1008B200E5289400E52794005045120E3B12098268
:1008C2008F0CE50CB403037F0022741C250BF8E6A1
:1008D200F50D750E40750F40751040851C11851C75
:1008E20012851C13851C147B007A00790D7D011280
:1008F2000B297D0A7C007F0A7E00120DE180BE7406
:100902001C250BF8E6F50D750E40750F407510406D
:10091200AE27AF287C037DE8120CFB741C2FF8E68F
:10092200F511AE27AF287C037DE8120CFB7E007F19
:1009320064CFCDCFCECCCE120CFB741C2FF8E6F5D3
:1009420012AE27AF287C007D64120CFB7E007F0A6A
:10095200CFCDCFCECCCE120CFB741C2FF8E6F51304
:10096200AE27AF287C007D0A120CFB741C2DF8E622
:10097200F5147B007A00790D7D01120B2902081211
:100E4F00E4FEEF60037F0022E4FF120D50AE07EEC9
:020E5F0060F63B
:010E6100226E
:100C4700E4F50BF50C750D31750E79750F77751089
:100C57005E75116E75124075134075144012098246
:100C67008F0BE4FF120D508F0CE50BB40402805478
:100C7700E50C60431209828F0BE50B640360357442
:100C87001C250CF8E6F50D750E40750F40751079AB
:100C970075113175123175135C7514317B007A004B
:100CA700790D7D01120B297D0A7C007F0A7E0012D7
:100CB7000DE180C0AF0C227B007A00790D7D011217
:060CC7000B2980997F005B
:010CCD002204
:100A7000E4F50BF514F515F5161209828F0BE50B4D
:100A8000B4010BE514C3946350040514802EE50BE8
:100A9000B40215C3E5169463E5159400500A0516D3
:100AA000E516701805158014E50BB40309E4F51478
:100AB000F515F5168006E50B64046058E51475F02D
:100AC0000A84241CF8E6F50CE51475F00A84741CFD
:100AD00025F0F8E6F50D750E40AE15AF167C007DDD
:100AE0000A120CFB741C2FF8E6F50FAE15AF167C3E
:100AF000007D0A120CFB741C2DF8E6F510751140F0
:100B00007512407513407B007A00790C7D01120B41
:100B100029020A79E51475F03CA4AEF02516F51605
:080B2000EE3515F515FEAF16C8
:010B280022AA
:100D9C00120E62E4F509F50AF508120A708E098F35
:100DAC000A120C478F08120E4F8F08AD0AAC0912AD
:040DBC00080080DFCC
:030E2000012B01A2
:100D5000EF6003752B01E52B6401702E30B1093073
:100D6000B00630B20320B3227FE87E03120E72E495
:100D7000F52B20B1037F012220B0037F022220B295
:100D8000037F032220B3127F042230B10C30B0095C
:0B0D900030B20630B303752B017F006A
:010D9B002235
:10098200E4F5177590F7E59064F7602C7FE87E0335
:10099200120E72AF90EF2449601124E0601224F02D
:1009A200601324707012751701800D751705800889
:1009B200751709800375170DE590B4F7FB7590FB69
:1009C200E59064FB602C7FE87E03120E72AF90EF1D
:1009D2002445601124E0601224F060132470701228
:1009E200751702800D751706800875170A80037542
:1009F200170EE590B4FBFB7590FDE59064FD602C4D
:100A02007FE87E03120E72AF90EF2443601124E060
:100A1200601224F0601324707012751703800D7534
:100A22001707800875170B800375170FE590B4FD43
:100A3200FB7590FEE59064FE602C7FE87E03120E4B
:100A420072AF90EF2442601124E0601224F0601330
:100A520024707012751704800D75170880087517B9
:0D0A62000C8003751710E590B4FEFBAF1774
:010A6F002264
:0C0E23000A1C3F065B4F666D7D077F6F69
:060B29008B178A188919E0
:100B2F00E4F51AED14F51BF51AE51AC39408507B7A
:100B3F00E51AB40800504D900B4DF8282873020B9E
:100B4F0065020B69020B6D020B71020B75020B7DB7
:100B5F00020B85020B8DD2A4800ED2A48012D2A4D8
:100B6F008016D2A4801AC2A4D2A3D2A28016C2A485
:100B7F00D2A3C2A2800EC2A4C2A3D2A28006C2A4D4
:100B8F00C2A3C2A2C3E51A951BFFE49400AB17AA38
:100B9F0018A9198F82F583120CCEF5807F647E0021
:0B0BAF00120E72E4F580051A020B38EC
:010BBA002218
:0B0E2F0001260002270000022900003D
:100E6200438901758CDCE4F58AD2A9D2AFC28C2207
:070E7D00D28C8E278F282282
:100E3B00C28CE4F58CF58A85272985282AF527F5B8
:040E4B0028F526223E
:03000B00020DC023
:100DC000C0E0C0D0758CDC758A000526E526B464C9
:100DD0000B752600E528152870021527D0D0D0E025
:010DE00032E0
:0B0E7200EF1FAC0670011E4C70F62252
:100E0200D3EF9400EE940040147D6E7C00ED1D70D3
:0D0E1200011CED4C70F7EF1F70E61E80E331
:010E1F0022B0
:100DE1008E158F168C178D18E5161516AE15700217
:100DF10015154E600BB295AF18AE17120E7280E842
:010E010022CE
:100BC700020D9CE493A3F8E493A34003F68001F29B
:100BD70008DFF48029E493A3F85407240CC8C3332F
:100BE700C4540F4420C8834004F456800146F6DFFE
:100BF700E4800B0102040810204080900E20E47E60
:100C0700019360BCA3FF543F30E509541FFEE493F2
:100C1700A360010ECF54C025E060A840B8E493A3B9
:100C2700FAE493A3F8E493A3C8C582C8CAC583CAE4
:100C3700F0A3C8C582C8CAC583CADFE9DEE780BE9C
:010E3A0000B7
:100CCE00BB010CE58229F582E5833AF583E02250DB
:100CDE0006E92582F8E622BBFE06E92582F8E22225
:0D0CEE00E58229F582E5833AF583E493223F
:100CFB00BC000BBE0029EF8DF084FFADF022E4CCDD
:100D0B00F875F008EF2FFFEE33FEEC33FCEE9DECA5
:100D1B00984005FCEE9DFE0FD5F0E9E4CEFD22EDEB
:100D2B00F8F5F0EE8420D21CFEADF075F008EF2F35
:100D3B00FFED33FD4007985006D5F0F222C398FD26
:050D4B000FD5F0EA22C3
:00000001FF
